{
  "contractName": "MyToken",
  "abi": [
    {
      "anonymous": false,
      "inputs": [
        {
          "indexed": true,
          "internalType": "address",
          "name": "owner",
          "type": "address"
        },
        {
          "indexed": true,
          "internalType": "address",
          "name": "spender",
          "type": "address"
        },
        {
          "indexed": false,
          "internalType": "uint256",
          "name": "value",
          "type": "uint256"
        }
      ],
      "name": "Approval",
      "type": "event"
    },
    {
      "anonymous": false,
      "inputs": [
        {
          "indexed": false,
          "internalType": "uint256",
          "name": "prev_cap",
          "type": "uint256"
        },
        {
          "indexed": false,
          "internalType": "uint256",
          "name": "new_cap",
          "type": "uint256"
        }
      ],
      "name": "CapChanged",
      "type": "event"
    },
    {
      "anonymous": false,
      "inputs": [
        {
          "indexed": false,
          "internalType": "address",
          "name": "account",
          "type": "address"
        }
      ],
      "name": "Paused",
      "type": "event"
    },
    {
      "anonymous": false,
      "inputs": [
        {
          "indexed": true,
          "internalType": "bytes32",
          "name": "role",
          "type": "bytes32"
        },
        {
          "indexed": true,
          "internalType": "bytes32",
          "name": "previousAdminRole",
          "type": "bytes32"
        },
        {
          "indexed": true,
          "internalType": "bytes32",
          "name": "newAdminRole",
          "type": "bytes32"
        }
      ],
      "name": "RoleAdminChanged",
      "type": "event"
    },
    {
      "anonymous": false,
      "inputs": [
        {
          "indexed": true,
          "internalType": "bytes32",
          "name": "role",
          "type": "bytes32"
        },
        {
          "indexed": true,
          "internalType": "address",
          "name": "account",
          "type": "address"
        },
        {
          "indexed": true,
          "internalType": "address",
          "name": "sender",
          "type": "address"
        }
      ],
      "name": "RoleGranted",
      "type": "event"
    },
    {
      "anonymous": false,
      "inputs": [
        {
          "indexed": true,
          "internalType": "bytes32",
          "name": "role",
          "type": "bytes32"
        },
        {
          "indexed": true,
          "internalType": "address",
          "name": "account",
          "type": "address"
        },
        {
          "indexed": true,
          "internalType": "address",
          "name": "sender",
          "type": "address"
        }
      ],
      "name": "RoleRevoked",
      "type": "event"
    },
    {
      "anonymous": false,
      "inputs": [
        {
          "indexed": true,
          "internalType": "address",
          "name": "from",
          "type": "address"
        },
        {
          "indexed": true,
          "internalType": "address",
          "name": "to",
          "type": "address"
        },
        {
          "indexed": false,
          "internalType": "uint256",
          "name": "value",
          "type": "uint256"
        }
      ],
      "name": "Transfer",
      "type": "event"
    },
    {
      "anonymous": false,
      "inputs": [
        {
          "indexed": false,
          "internalType": "address",
          "name": "account",
          "type": "address"
        }
      ],
      "name": "Unpaused",
      "type": "event"
    },
    {
      "inputs": [],
      "name": "CAPCHG_ROLE",
      "outputs": [
        {
          "internalType": "bytes32",
          "name": "",
          "type": "bytes32"
        }
      ],
      "stateMutability": "view",
      "type": "function",
      "constant": true
    },
    {
      "inputs": [],
      "name": "DEFAULT_ADMIN_ROLE",
      "outputs": [
        {
          "internalType": "bytes32",
          "name": "",
          "type": "bytes32"
        }
      ],
      "stateMutability": "view",
      "type": "function",
      "constant": true
    },
    {
      "inputs": [],
      "name": "MINTER_ROLE",
      "outputs": [
        {
          "internalType": "bytes32",
          "name": "",
          "type": "bytes32"
        }
      ],
      "stateMutability": "view",
      "type": "function",
      "constant": true
    },
    {
      "inputs": [],
      "name": "PAUSER_ROLE",
      "outputs": [
        {
          "internalType": "bytes32",
          "name": "",
          "type": "bytes32"
        }
      ],
      "stateMutability": "view",
      "type": "function",
      "constant": true
    },
    {
      "inputs": [
        {
          "internalType": "address",
          "name": "owner",
          "type": "address"
        },
        {
          "internalType": "address",
          "name": "spender",
          "type": "address"
        }
      ],
      "name": "allowance",
      "outputs": [
        {
          "internalType": "uint256",
          "name": "",
          "type": "uint256"
        }
      ],
      "stateMutability": "view",
      "type": "function",
      "constant": true
    },
    {
      "inputs": [
        {
          "internalType": "address",
          "name": "spender",
          "type": "address"
        },
        {
          "internalType": "uint256",
          "name": "amount",
          "type": "uint256"
        }
      ],
      "name": "approve",
      "outputs": [
        {
          "internalType": "bool",
          "name": "",
          "type": "bool"
        }
      ],
      "stateMutability": "nonpayable",
      "type": "function"
    },
    {
      "inputs": [
        {
          "internalType": "address",
          "name": "account",
          "type": "address"
        }
      ],
      "name": "balanceOf",
      "outputs": [
        {
          "internalType": "uint256",
          "name": "",
          "type": "uint256"
        }
      ],
      "stateMutability": "view",
      "type": "function",
      "constant": true
    },
    {
      "inputs": [
        {
          "internalType": "uint256",
          "name": "amount",
          "type": "uint256"
        }
      ],
      "name": "burn",
      "outputs": [],
      "stateMutability": "nonpayable",
      "type": "function"
    },
    {
      "inputs": [
        {
          "internalType": "address",
          "name": "account",
          "type": "address"
        },
        {
          "internalType": "uint256",
          "name": "amount",
          "type": "uint256"
        }
      ],
      "name": "burnFrom",
      "outputs": [],
      "stateMutability": "nonpayable",
      "type": "function"
    },
    {
      "inputs": [],
      "name": "cap",
      "outputs": [
        {
          "internalType": "uint256",
          "name": "",
          "type": "uint256"
        }
      ],
      "stateMutability": "view",
      "type": "function",
      "constant": true
    },
    {
      "inputs": [],
      "name": "decimals",
      "outputs": [
        {
          "internalType": "uint8",
          "name": "",
          "type": "uint8"
        }
      ],
      "stateMutability": "view",
      "type": "function",
      "constant": true
    },
    {
      "inputs": [
        {
          "internalType": "address",
          "name": "spender",
          "type": "address"
        },
        {
          "internalType": "uint256",
          "name": "subtractedValue",
          "type": "uint256"
        }
      ],
      "name": "decreaseAllowance",
      "outputs": [
        {
          "internalType": "bool",
          "name": "",
          "type": "bool"
        }
      ],
      "stateMutability": "nonpayable",
      "type": "function"
    },
    {
      "inputs": [
        {
          "internalType": "bytes32",
          "name": "role",
          "type": "bytes32"
        }
      ],
      "name": "getRoleAdmin",
      "outputs": [
        {
          "internalType": "bytes32",
          "name": "",
          "type": "bytes32"
        }
      ],
      "stateMutability": "view",
      "type": "function",
      "constant": true
    },
    {
      "inputs": [
        {
          "internalType": "bytes32",
          "name": "role",
          "type": "bytes32"
        },
        {
          "internalType": "uint256",
          "name": "index",
          "type": "uint256"
        }
      ],
      "name": "getRoleMember",
      "outputs": [
        {
          "internalType": "address",
          "name": "",
          "type": "address"
        }
      ],
      "stateMutability": "view",
      "type": "function",
      "constant": true
    },
    {
      "inputs": [
        {
          "internalType": "bytes32",
          "name": "role",
          "type": "bytes32"
        }
      ],
      "name": "getRoleMemberCount",
      "outputs": [
        {
          "internalType": "uint256",
          "name": "",
          "type": "uint256"
        }
      ],
      "stateMutability": "view",
      "type": "function",
      "constant": true
    },
    {
      "inputs": [
        {
          "internalType": "bytes32",
          "name": "role",
          "type": "bytes32"
        },
        {
          "internalType": "address",
          "name": "account",
          "type": "address"
        }
      ],
      "name": "grantRole",
      "outputs": [],
      "stateMutability": "nonpayable",
      "type": "function"
    },
    {
      "inputs": [
        {
          "internalType": "bytes32",
          "name": "role",
          "type": "bytes32"
        },
        {
          "internalType": "address",
          "name": "account",
          "type": "address"
        }
      ],
      "name": "hasRole",
      "outputs": [
        {
          "internalType": "bool",
          "name": "",
          "type": "bool"
        }
      ],
      "stateMutability": "view",
      "type": "function",
      "constant": true
    },
    {
      "inputs": [
        {
          "internalType": "address",
          "name": "spender",
          "type": "address"
        },
        {
          "internalType": "uint256",
          "name": "addedValue",
          "type": "uint256"
        }
      ],
      "name": "increaseAllowance",
      "outputs": [
        {
          "internalType": "bool",
          "name": "",
          "type": "bool"
        }
      ],
      "stateMutability": "nonpayable",
      "type": "function"
    },
    {
      "inputs": [
        {
          "internalType": "address",
          "name": "to",
          "type": "address"
        },
        {
          "internalType": "uint256",
          "name": "amount",
          "type": "uint256"
        }
      ],
      "name": "mint",
      "outputs": [],
      "stateMutability": "nonpayable",
      "type": "function"
    },
    {
      "inputs": [],
      "name": "name",
      "outputs": [
        {
          "internalType": "string",
          "name": "",
          "type": "string"
        }
      ],
      "stateMutability": "view",
      "type": "function",
      "constant": true
    },
    {
      "inputs": [],
      "name": "pause",
      "outputs": [],
      "stateMutability": "nonpayable",
      "type": "function"
    },
    {
      "inputs": [],
      "name": "paused",
      "outputs": [
        {
          "internalType": "bool",
          "name": "",
          "type": "bool"
        }
      ],
      "stateMutability": "view",
      "type": "function",
      "constant": true
    },
    {
      "inputs": [
        {
          "internalType": "bytes32",
          "name": "role",
          "type": "bytes32"
        },
        {
          "internalType": "address",
          "name": "account",
          "type": "address"
        }
      ],
      "name": "renounceRole",
      "outputs": [],
      "stateMutability": "nonpayable",
      "type": "function"
    },
    {
      "inputs": [
        {
          "internalType": "bytes32",
          "name": "role",
          "type": "bytes32"
        },
        {
          "internalType": "address",
          "name": "account",
          "type": "address"
        }
      ],
      "name": "revokeRole",
      "outputs": [],
      "stateMutability": "nonpayable",
      "type": "function"
    },
    {
      "inputs": [
        {
          "internalType": "uint256",
          "name": "new_cap",
          "type": "uint256"
        }
      ],
      "name": "setCap",
      "outputs": [
        {
          "internalType": "bool",
          "name": "",
          "type": "bool"
        }
      ],
      "stateMutability": "nonpayable",
      "type": "function"
    },
    {
      "inputs": [
        {
          "internalType": "bytes4",
          "name": "interfaceId",
          "type": "bytes4"
        }
      ],
      "name": "supportsInterface",
      "outputs": [
        {
          "internalType": "bool",
          "name": "",
          "type": "bool"
        }
      ],
      "stateMutability": "view",
      "type": "function",
      "constant": true
    },
    {
      "inputs": [],
      "name": "symbol",
      "outputs": [
        {
          "internalType": "string",
          "name": "",
          "type": "string"
        }
      ],
      "stateMutability": "view",
      "type": "function",
      "constant": true
    },
    {
      "inputs": [],
      "name": "totalSupply",
      "outputs": [
        {
          "internalType": "uint256",
          "name": "",
          "type": "uint256"
        }
      ],
      "stateMutability": "view",
      "type": "function",
      "constant": true
    },
    {
      "inputs": [
        {
          "internalType": "address",
          "name": "recipient",
          "type": "address"
        },
        {
          "internalType": "uint256",
          "name": "amount",
          "type": "uint256"
        }
      ],
      "name": "transfer",
      "outputs": [
        {
          "internalType": "bool",
          "name": "",
          "type": "bool"
        }
      ],
      "stateMutability": "nonpayable",
      "type": "function"
    },
    {
      "inputs": [
        {
          "internalType": "address",
          "name": "sender",
          "type": "address"
        },
        {
          "internalType": "address",
          "name": "recipient",
          "type": "address"
        },
        {
          "internalType": "uint256",
          "name": "amount",
          "type": "uint256"
        }
      ],
      "name": "transferFrom",
      "outputs": [
        {
          "internalType": "bool",
          "name": "",
          "type": "bool"
        }
      ],
      "stateMutability": "nonpayable",
      "type": "function"
    },
    {
      "inputs": [],
      "name": "unpause",
      "outputs": [],
      "stateMutability": "nonpayable",
      "type": "function"
    }
  ],
  "bytecode": "0x60806040523480156200001157600080fd5b506040518060400160405280600781526020017f4d79546f6b656e000000000000000000000000000000000000000000000000008152506040518060400160405280600381526020017f4d544b0000000000000000000000000000000000000000000000000000000000815250612710828281600590805190602001906200009b929190620004b9565b508060069080519060200190620000b4929190620004b9565b5050506000600760006101000a81548160ff021916908315150217905550620000f66000801b620000ea620001d360201b60201c565b620001db60201b60201c565b620001377f9f2df0fed2c77648de5860a4cc508cd0818c85b8b8a1ab4ceeef8d981c8956a66200012b620001d360201b60201c565b620001db60201b60201c565b620001787f65d7a28e3265b37a6474929f336521b332c1681b933f6cb9f3376673440d862a6200016c620001d360201b60201c565b620001db60201b60201c565b620001b97fa0d21e1991b0936f0c70d0816d8ba3da1339700a800651e6c376109a7a6ec72c620001ad620001d360201b60201c565b620001db60201b60201c565b620001ca816200022360201b60201c565b50505062000651565b600033905090565b620001f282826200027360201b620010c41760201c565b6200021e81600160008581526020019081526020016000206200028960201b620010d21790919060201c565b505050565b6000811162000269576040517f08c379a0000000000000000000000000000000000000000000000000000000008152600401620002609062000590565b60405180910390fd5b8060088190555050565b620002858282620002c160201b60201c565b5050565b6000620002b9836000018373ffffffffffffffffffffffffffffffffffffffff1660001b620003b260201b60201c565b905092915050565b620002d382826200042c60201b60201c565b620003ae57600160008084815260200190815260200160002060000160008373ffffffffffffffffffffffffffffffffffffffff1673ffffffffffffffffffffffffffffffffffffffff16815260200190815260200160002060006101000a81548160ff02191690831515021790555062000353620001d360201b60201c565b73ffffffffffffffffffffffffffffffffffffffff168173ffffffffffffffffffffffffffffffffffffffff16837f2f8788117e7eff1d82e926ec794901d17c78024a50270940304540a733656f0d60405160405180910390a45b5050565b6000620003c683836200049660201b60201c565b6200042157826000018290806001815401808255809150506001900390600052602060002001600090919091909150558260000180549050836001016000848152602001908152602001600020819055506001905062000426565b600090505b92915050565b600080600084815260200190815260200160002060000160008373ffffffffffffffffffffffffffffffffffffffff1673ffffffffffffffffffffffffffffffffffffffff16815260200190815260200160002060009054906101000a900460ff16905092915050565b600080836001016000848152602001908152602001600020541415905092915050565b828054620004c790620005c3565b90600052602060002090601f016020900481019282620004eb576000855562000537565b82601f106200050657805160ff191683800117855562000537565b8280016001018555821562000537579182015b828111156200053657825182559160200191906001019062000519565b5b5090506200054691906200054a565b5090565b5b80821115620005655760008160009055506001016200054b565b5090565b600062000578601583620005b2565b9150620005858262000628565b602082019050919050565b60006020820190508181036000830152620005ab8162000569565b9050919050565b600082825260208201905092915050565b60006002820490506001821680620005dc57607f821691505b60208210811415620005f357620005f2620005f9565b5b50919050565b7f4e487b7100000000000000000000000000000000000000000000000000000000600052602260045260246000fd5b7f45524332304361707065643a2063617020697320300000000000000000000000600082015250565b6138d380620006616000396000f3fe608060405234801561001057600080fd5b50600436106101e55760003560e01c806347786d371161010f578063a217fddf116100a2578063d539139311610071578063d5391393146105ba578063d547741f146105d8578063dd62ed3e146105f4578063e63ab1e914610624576101e5565b8063a217fddf1461050c578063a457c2d71461052a578063a9059cbb1461055a578063ca15c8731461058a576101e5565b80638456cb59116100de5780638456cb59146104845780639010d07c1461048e57806391d14854146104be57806395d89b41146104ee576101e5565b806347786d37146103ea5780635c975abb1461041a57806370a082311461043857806379cc679014610468576101e5565b80632f2ff15d11610187578063395093511161015657806339509351146103785780633f4ba83a146103a857806340c10f19146103b257806342966c68146103ce576101e5565b80632f2ff15d14610304578063313ce56714610320578063355274ea1461033e57806336568abe1461035c576101e5565b806318160ddd116101c357806318160ddd146102685780631edab9751461028657806323b872dd146102a4578063248a9ca3146102d4576101e5565b806301ffc9a7146101ea57806306fdde031461021a578063095ea7b314610238575b600080fd5b61020460048036038101906101ff91906125c2565b610642565b6040516102119190612ab4565b60405180910390f35b6102226106bc565b60405161022f9190612aea565b60405180910390f35b610252600480360381019061024d91906124d5565b61074e565b60405161025f9190612ab4565b60405180910390f35b61027061076c565b60405161027d9190612e0c565b60405180910390f35b61028e610776565b60405161029b9190612acf565b60405180910390f35b6102be60048036038101906102b99190612482565b61079a565b6040516102cb9190612ab4565b60405180910390f35b6102ee60048036038101906102e99190612515565b61089b565b6040516102fb9190612acf565b60405180910390f35b61031e60048036038101906103199190612542565b6108ba565b005b6103286108ee565b6040516103359190612e50565b60405180910390f35b6103466108f7565b6040516103539190612e0c565b60405180910390f35b61037660048036038101906103719190612542565b610901565b005b610392600480360381019061038d91906124d5565b610935565b60405161039f9190612ab4565b60405180910390f35b6103b06109e1565b005b6103cc60048036038101906103c791906124d5565b610a5b565b005b6103e860048036038101906103e391906125ef565b610ad9565b005b61040460048036038101906103ff91906125ef565b610aed565b6040516104119190612ab4565b60405180910390f35b610422610bfb565b60405161042f9190612ab4565b60405180910390f35b610452600480360381019061044d9190612415565b610c12565b60405161045f9190612e0c565b60405180910390f35b610482600480360381019061047d91906124d5565b610c5b565b005b61048c610cdf565b005b6104a860048036038101906104a39190612582565b610d59565b6040516104b59190612a99565b60405180910390f35b6104d860048036038101906104d39190612542565b610d88565b6040516104e59190612ab4565b60405180910390f35b6104f6610df2565b6040516105039190612aea565b60405180910390f35b610514610e84565b6040516105219190612acf565b60405180910390f35b610544600480360381019061053f91906124d5565b610e8b565b6040516105519190612ab4565b60405180910390f35b610574600480360381019061056f91906124d5565b610f7f565b6040516105819190612ab4565b60405180910390f35b6105a4600480360381019061059f9190612515565b610f9d565b6040516105b19190612e0c565b60405180910390f35b6105c2610fc1565b6040516105cf9190612acf565b60405180910390f35b6105f260048036038101906105ed9190612542565b610fe5565b005b61060e60048036038101906106099190612442565b611019565b60405161061b9190612e0c565b60405180910390f35b61062c6110a0565b6040516106399190612acf565b60405180910390f35b60007f5a05180f000000000000000000000000000000000000000000000000000000007bffffffffffffffffffffffffffffffffffffffffffffffffffffffff1916827bffffffffffffffffffffffffffffffffffffffffffffffffffffffff191614806106b557506106b482611102565b5b9050919050565b6060600580546106cb9061305e565b80601f01602080910402602001604051908101604052809291908181526020018280546106f79061305e565b80156107445780601f1061071957610100808354040283529160200191610744565b820191906000526020600020905b81548152906001019060200180831161072757829003601f168201915b5050505050905090565b600061076261075b61117c565b8484611184565b6001905092915050565b6000600454905090565b7fa0d21e1991b0936f0c70d0816d8ba3da1339700a800651e6c376109a7a6ec72c81565b60006107a784848461134f565b6000600360008673ffffffffffffffffffffffffffffffffffffffff1673ffffffffffffffffffffffffffffffffffffffff16815260200190815260200160002060006107f261117c565b73ffffffffffffffffffffffffffffffffffffffff1673ffffffffffffffffffffffffffffffffffffffff16815260200190815260200160002054905082811015610872576040517f08c379a000000000000000000000000000000000000000000000000000000000815260040161086990612c6c565b60405180910390fd5b61088f8561087e61117c565b858461088a9190612f42565b611184565b60019150509392505050565b6000806000838152602001908152602001600020600101549050919050565b6108c482826115d1565b6108e981600160008581526020019081526020016000206110d290919063ffffffff16565b505050565b60006012905090565b6000600854905090565b61090b82826115fa565b610930816001600085815260200190815260200160002061167d90919063ffffffff16565b505050565b60006109d761094261117c565b84846003600061095061117c565b73ffffffffffffffffffffffffffffffffffffffff1673ffffffffffffffffffffffffffffffffffffffff16815260200190815260200160002060008873ffffffffffffffffffffffffffffffffffffffff1673ffffffffffffffffffffffffffffffffffffffff168152602001908152602001600020546109d29190612e92565b611184565b6001905092915050565b610a127f65d7a28e3265b37a6474929f336521b332c1681b933f6cb9f3376673440d862a610a0d61117c565b610d88565b610a51576040517f08c379a0000000000000000000000000000000000000000000000000000000008152600401610a4890612bec565b60405180910390fd5b610a596116ad565b565b610a8c7f9f2df0fed2c77648de5860a4cc508cd0818c85b8b8a1ab4ceeef8d981c8956a6610a8761117c565b610d88565b610acb576040517f08c379a0000000000000000000000000000000000000000000000000000000008152600401610ac290612c8c565b60405180910390fd5b610ad5828261174f565b5050565b610aea610ae461117c565b826117b9565b50565b6000610b207fa0d21e1991b0936f0c70d0816d8ba3da1339700a800651e6c376109a7a6ec72c610b1b61117c565b610d88565b610b5f576040517f08c379a0000000000000000000000000000000000000000000000000000000008152600401610b5690612b0c565b60405180910390fd5b610b6761076c565b8211610ba8576040517f08c379a0000000000000000000000000000000000000000000000000000000008152600401610b9f90612d0c565b60405180910390fd5b60006008549050610bb88361198f565b7f7338f3784ceb8f9456bac0c4a69f1c6354dc325fa6455e3e3f6a8a9bf9249a7c8184604051610be9929190612e27565b60405180910390a16001915050919050565b6000600760009054906101000a900460ff16905090565b6000600260008373ffffffffffffffffffffffffffffffffffffffff1673ffffffffffffffffffffffffffffffffffffffff168152602001908152602001600020549050919050565b6000610c6e83610c6961117c565b611019565b905081811015610cb3576040517f08c379a0000000000000000000000000000000000000000000000000000000008152600401610caa90612cac565b60405180910390fd5b610cd083610cbf61117c565b8484610ccb9190612f42565b611184565b610cda83836117b9565b505050565b610d107f65d7a28e3265b37a6474929f336521b332c1681b933f6cb9f3376673440d862a610d0b61117c565b610d88565b610d4f576040517f08c379a0000000000000000000000000000000000000000000000000000000008152600401610d4690612d6c565b60405180910390fd5b610d576119dc565b565b6000610d808260016000868152602001908152602001600020611a7f90919063ffffffff16565b905092915050565b600080600084815260200190815260200160002060000160008373ffffffffffffffffffffffffffffffffffffffff1673ffffffffffffffffffffffffffffffffffffffff16815260200190815260200160002060009054906101000a900460ff16905092915050565b606060068054610e019061305e565b80601f0160208091040260200160405190810160405280929190818152602001828054610e2d9061305e565b8015610e7a5780601f10610e4f57610100808354040283529160200191610e7a565b820191906000526020600020905b815481529060010190602001808311610e5d57829003601f168201915b5050505050905090565b6000801b81565b60008060036000610e9a61117c565b73ffffffffffffffffffffffffffffffffffffffff1673ffffffffffffffffffffffffffffffffffffffff16815260200190815260200160002060008573ffffffffffffffffffffffffffffffffffffffff1673ffffffffffffffffffffffffffffffffffffffff16815260200190815260200160002054905082811015610f57576040517f08c379a0000000000000000000000000000000000000000000000000000000008152600401610f4e90612d8c565b60405180910390fd5b610f74610f6261117c565b858584610f6f9190612f42565b611184565b600191505092915050565b6000610f93610f8c61117c565b848461134f565b6001905092915050565b6000610fba60016000848152602001908152602001600020611a99565b9050919050565b7f9f2df0fed2c77648de5860a4cc508cd0818c85b8b8a1ab4ceeef8d981c8956a681565b610fef8282611aae565b611014816001600085815260200190815260200160002061167d90919063ffffffff16565b505050565b6000600360008473ffffffffffffffffffffffffffffffffffffffff1673ffffffffffffffffffffffffffffffffffffffff16815260200190815260200160002060008373ffffffffffffffffffffffffffffffffffffffff1673ffffffffffffffffffffffffffffffffffffffff16815260200190815260200160002054905092915050565b7f65d7a28e3265b37a6474929f336521b332c1681b933f6cb9f3376673440d862a81565b6110ce8282611ad7565b5050565b60006110fa836000018373ffffffffffffffffffffffffffffffffffffffff1660001b611bb7565b905092915050565b60007f7965db0b000000000000000000000000000000000000000000000000000000007bffffffffffffffffffffffffffffffffffffffffffffffffffffffff1916827bffffffffffffffffffffffffffffffffffffffffffffffffffffffff19161480611175575061117482611c27565b5b9050919050565b600033905090565b600073ffffffffffffffffffffffffffffffffffffffff168373ffffffffffffffffffffffffffffffffffffffff1614156111f4576040517f08c379a00000000000000000000000000000000000000000000000000000000081526004016111eb90612d4c565b60405180910390fd5b600073ffffffffffffffffffffffffffffffffffffffff168273ffffffffffffffffffffffffffffffffffffffff161415611264576040517f08c379a000000000000000000000000000000000000000000000000000000000815260040161125b90612c0c565b60405180910390fd5b80600360008573ffffffffffffffffffffffffffffffffffffffff1673ffffffffffffffffffffffffffffffffffffffff16815260200190815260200160002060008473ffffffffffffffffffffffffffffffffffffffff1673ffffffffffffffffffffffffffffffffffffffff168152602001908152602001600020819055508173ffffffffffffffffffffffffffffffffffffffff168373ffffffffffffffffffffffffffffffffffffffff167f8c5be1e5ebec7d5bd14f71427d1e84f3dd0314c0f7b2291e5b200ac8c7c3b925836040516113429190612e0c565b60405180910390a3505050565b600073ffffffffffffffffffffffffffffffffffffffff168373ffffffffffffffffffffffffffffffffffffffff1614156113bf576040517f08c379a00000000000000000000000000000000000000000000000000000000081526004016113b690612cec565b60405180910390fd5b600073ffffffffffffffffffffffffffffffffffffffff168273ffffffffffffffffffffffffffffffffffffffff16141561142f576040517f08c379a000000000000000000000000000000000000000000000000000000000815260040161142690612b6c565b60405180910390fd5b61143a838383611c91565b6000600260008573ffffffffffffffffffffffffffffffffffffffff1673ffffffffffffffffffffffffffffffffffffffff168152602001908152602001600020549050818110156114c1576040517f08c379a00000000000000000000000000000000000000000000000000000000081526004016114b890612c2c565b60405180910390fd5b81816114cd9190612f42565b600260008673ffffffffffffffffffffffffffffffffffffffff1673ffffffffffffffffffffffffffffffffffffffff1681526020019081526020016000208190555081600260008573ffffffffffffffffffffffffffffffffffffffff1673ffffffffffffffffffffffffffffffffffffffff168152602001908152602001600020600082825461155f9190612e92565b925050819055508273ffffffffffffffffffffffffffffffffffffffff168473ffffffffffffffffffffffffffffffffffffffff167fddf252ad1be2c89b69c2b068fc378daa952ba7f163c4a11628f55a4df523b3ef846040516115c39190612e0c565b60405180910390a350505050565b6115da8261089b565b6115eb816115e661117c565b611ca1565b6115f58383611ad7565b505050565b61160261117c565b73ffffffffffffffffffffffffffffffffffffffff168173ffffffffffffffffffffffffffffffffffffffff161461166f576040517f08c379a000000000000000000000000000000000000000000000000000000000815260040161166690612dac565b60405180910390fd5b6116798282611d3e565b5050565b60006116a5836000018373ffffffffffffffffffffffffffffffffffffffff1660001b611e1f565b905092915050565b6116b5610bfb565b6116f4576040517f08c379a00000000000000000000000000000000000000000000000000000000081526004016116eb90612bac565b60405180910390fd5b6000600760006101000a81548160ff0219169083151502179055507f5db9ee0a495bf2e6ff9c91a7834c1ba4fdd244a5e8aa4e537bd38aeae4b073aa61173861117c565b6040516117459190612a99565b60405180910390a1565b6117576108f7565b8161176061076c565b61176a9190612e92565b11156117ab576040517f08c379a00000000000000000000000000000000000000000000000000000000081526004016117a290612d2c565b60405180910390fd5b6117b58282611f2b565b5050565b600073ffffffffffffffffffffffffffffffffffffffff168273ffffffffffffffffffffffffffffffffffffffff161415611829576040517f08c379a000000000000000000000000000000000000000000000000000000000815260040161182090612ccc565b60405180910390fd5b61183582600083611c91565b6000600260008473ffffffffffffffffffffffffffffffffffffffff1673ffffffffffffffffffffffffffffffffffffffff168152602001908152602001600020549050818110156118bc576040517f08c379a00000000000000000000000000000000000000000000000000000000081526004016118b390612bcc565b60405180910390fd5b81816118c89190612f42565b600260008573ffffffffffffffffffffffffffffffffffffffff1673ffffffffffffffffffffffffffffffffffffffff16815260200190815260200160002081905550816004600082825461191d9190612f42565b92505081905550600073ffffffffffffffffffffffffffffffffffffffff168373ffffffffffffffffffffffffffffffffffffffff167fddf252ad1be2c89b69c2b068fc378daa952ba7f163c4a11628f55a4df523b3ef846040516119829190612e0c565b60405180910390a3505050565b600081116119d2576040517f08c379a00000000000000000000000000000000000000000000000000000000081526004016119c990612b8c565b60405180910390fd5b8060088190555050565b6119e4610bfb565b15611a24576040517f08c379a0000000000000000000000000000000000000000000000000000000008152600401611a1b90612c4c565b60405180910390fd5b6001600760006101000a81548160ff0219169083151502179055507f62e78cea01bee320cd4e420270b5ea74000d11b0c9f74754ebdbfc544b05a258611a6861117c565b604051611a759190612a99565b60405180910390a1565b6000611a8e8360000183612080565b60001c905092915050565b6000611aa7826000016120f4565b9050919050565b611ab78261089b565b611ac881611ac361117c565b611ca1565b611ad28383611d3e565b505050565b611ae18282610d88565b611bb357600160008084815260200190815260200160002060000160008373ffffffffffffffffffffffffffffffffffffffff1673ffffffffffffffffffffffffffffffffffffffff16815260200190815260200160002060006101000a81548160ff021916908315150217905550611b5861117c565b73ffffffffffffffffffffffffffffffffffffffff168173ffffffffffffffffffffffffffffffffffffffff16837f2f8788117e7eff1d82e926ec794901d17c78024a50270940304540a733656f0d60405160405180910390a45b5050565b6000611bc38383612105565b611c1c578260000182908060018154018082558091505060019003906000526020600020016000909190919091505582600001805490508360010160008481526020019081526020016000208190555060019050611c21565b600090505b92915050565b60007f01ffc9a7000000000000000000000000000000000000000000000000000000007bffffffffffffffffffffffffffffffffffffffffffffffffffffffff1916827bffffffffffffffffffffffffffffffffffffffffffffffffffffffff1916149050919050565b611c9c838383612128565b505050565b611cab8282610d88565b611d3a57611cd08173ffffffffffffffffffffffffffffffffffffffff166014612180565b611cde8360001c6020612180565b604051602001611cef929190612a5f565b6040516020818303038152906040526040517f08c379a0000000000000000000000000000000000000000000000000000000008152600401611d319190612aea565b60405180910390fd5b5050565b611d488282610d88565b15611e1b57600080600084815260200190815260200160002060000160008373ffffffffffffffffffffffffffffffffffffffff1673ffffffffffffffffffffffffffffffffffffffff16815260200190815260200160002060006101000a81548160ff021916908315150217905550611dc061117c565b73ffffffffffffffffffffffffffffffffffffffff168173ffffffffffffffffffffffffffffffffffffffff16837ff6391f5c32d9c69d2a47ea670b442974b53935d1edc7fd64eb21e047a839171b60405160405180910390a45b5050565b60008083600101600084815260200190815260200160002054905060008114611f1f576000600182611e519190612f42565b9050600060018660000180549050611e699190612f42565b90506000866000018281548110611e8357611e8261311d565b5b9060005260206000200154905080876000018481548110611ea757611ea661311d565b5b9060005260206000200181905550838760010160008381526020019081526020016000208190555086600001805480611ee357611ee26130ee565b5b60019003818190600052602060002001600090559055866001016000878152602001908152602001600020600090556001945050505050611f25565b60009150505b92915050565b600073ffffffffffffffffffffffffffffffffffffffff168273ffffffffffffffffffffffffffffffffffffffff161415611f9b576040517f08c379a0000000000000000000000000000000000000000000000000000000008152600401611f9290612dcc565b60405180910390fd5b611fa760008383611c91565b8060046000828254611fb99190612e92565b9250508190555080600260008473ffffffffffffffffffffffffffffffffffffffff1673ffffffffffffffffffffffffffffffffffffffff168152602001908152602001600020600082825461200f9190612e92565b925050819055508173ffffffffffffffffffffffffffffffffffffffff16600073ffffffffffffffffffffffffffffffffffffffff167fddf252ad1be2c89b69c2b068fc378daa952ba7f163c4a11628f55a4df523b3ef836040516120749190612e0c565b60405180910390a35050565b6000818360000180549050116120cb576040517f08c379a00000000000000000000000000000000000000000000000000000000081526004016120c290612b2c565b60405180910390fd5b8260000182815481106120e1576120e061311d565b5b9060005260206000200154905092915050565b600081600001805490509050919050565b600080836001016000848152602001908152602001600020541415905092915050565b6121338383836123bc565b61213b610bfb565b1561217b576040517f08c379a000000000000000000000000000000000000000000000000000000000815260040161217290612dec565b60405180910390fd5b505050565b6060600060028360026121939190612ee8565b61219d9190612e92565b67ffffffffffffffff8111156121b6576121b561314c565b5b6040519080825280601f01601f1916602001820160405280156121e85781602001600182028036833780820191505090505b5090507f3000000000000000000000000000000000000000000000000000000000000000816000815181106122205761221f61311d565b5b60200101907effffffffffffffffffffffffffffffffffffffffffffffffffffffffffffff1916908160001a9053507f7800000000000000000000000000000000000000000000000000000000000000816001815181106122845761228361311d565b5b60200101907effffffffffffffffffffffffffffffffffffffffffffffffffffffffffffff1916908160001a905350600060018460026122c49190612ee8565b6122ce9190612e92565b90505b600181111561236e577f3031323334353637383961626364656600000000000000000000000000000000600f8616601081106123105761230f61311d565b5b1a60f81b8282815181106123275761232661311d565b5b60200101907effffffffffffffffffffffffffffffffffffffffffffffffffffffffffffff1916908160001a905350600485901c94508061236790613034565b90506122d1565b50600084146123b2576040517f08c379a00000000000000000000000000000000000000000000000000000000081526004016123a990612b4c565b60405180910390fd5b8091505092915050565b505050565b6000813590506123d081613841565b92915050565b6000813590506123e581613858565b92915050565b6000813590506123fa8161386f565b92915050565b60008135905061240f81613886565b92915050565b60006020828403121561242b5761242a61317b565b5b6000612439848285016123c1565b91505092915050565b600080604083850312156124595761245861317b565b5b6000612467858286016123c1565b9250506020612478858286016123c1565b9150509250929050565b60008060006060848603121561249b5761249a61317b565b5b60006124a9868287016123c1565b93505060206124ba868287016123c1565b92505060406124cb86828701612400565b9150509250925092565b600080604083850312156124ec576124eb61317b565b5b60006124fa858286016123c1565b925050602061250b85828601612400565b9150509250929050565b60006020828403121561252b5761252a61317b565b5b6000612539848285016123d6565b91505092915050565b600080604083850312156125595761255861317b565b5b6000612567858286016123d6565b9250506020612578858286016123c1565b9150509250929050565b600080604083850312156125995761259861317b565b5b60006125a7858286016123d6565b92505060206125b885828601612400565b9150509250929050565b6000602082840312156125d8576125d761317b565b5b60006125e6848285016123eb565b91505092915050565b6000602082840312156126055761260461317b565b5b600061261384828501612400565b91505092915050565b61262581612f76565b82525050565b61263481612f88565b82525050565b61264381612f94565b82525050565b600061265482612e6b565b61265e8185612e76565b935061266e818560208601613001565b61267781613180565b840191505092915050565b600061268d82612e6b565b6126978185612e87565b93506126a7818560208601613001565b80840191505092915050565b60006126c0601a83612e76565b91506126cb82613191565b602082019050919050565b60006126e3602283612e76565b91506126ee826131ba565b604082019050919050565b6000612706602083612e76565b915061271182613209565b602082019050919050565b6000612729602383612e76565b915061273482613232565b604082019050919050565b600061274c601583612e76565b915061275782613281565b602082019050919050565b600061276f601483612e76565b915061277a826132aa565b602082019050919050565b6000612792602283612e76565b915061279d826132d3565b604082019050919050565b60006127b5603983612e76565b91506127c082613322565b604082019050919050565b60006127d8602283612e76565b91506127e382613371565b604082019050919050565b60006127fb602683612e76565b9150612806826133c0565b604082019050919050565b600061281e601083612e76565b91506128298261340f565b602082019050919050565b6000612841602883612e76565b915061284c82613438565b604082019050919050565b6000612864603683612e76565b915061286f82613487565b604082019050919050565b6000612887602483612e76565b9150612892826134d6565b604082019050919050565b60006128aa602183612e76565b91506128b582613525565b604082019050919050565b60006128cd602583612e76565b91506128d882613574565b604082019050919050565b60006128f0602583612e76565b91506128fb826135c3565b604082019050919050565b6000612913601983612e76565b915061291e82613612565b602082019050919050565b6000612936602483612e76565b91506129418261363b565b604082019050919050565b6000612959603783612e76565b91506129648261368a565b604082019050919050565b600061297c601783612e87565b9150612987826136d9565b601782019050919050565b600061299f602583612e76565b91506129aa82613702565b604082019050919050565b60006129c2601183612e87565b91506129cd82613751565b601182019050919050565b60006129e5602f83612e76565b91506129f08261377a565b604082019050919050565b6000612a08601f83612e76565b9150612a13826137c9565b602082019050919050565b6000612a2b602a83612e76565b9150612a36826137f2565b604082019050919050565b612a4a81612fea565b82525050565b612a5981612ff4565b82525050565b6000612a6a8261296f565b9150612a768285612682565b9150612a81826129b5565b9150612a8d8284612682565b91508190509392505050565b6000602082019050612aae600083018461261c565b92915050565b6000602082019050612ac9600083018461262b565b92915050565b6000602082019050612ae4600083018461263a565b92915050565b60006020820190508181036000830152612b048184612649565b905092915050565b60006020820190508181036000830152612b25816126b3565b9050919050565b60006020820190508181036000830152612b45816126d6565b9050919050565b60006020820190508181036000830152612b65816126f9565b9050919050565b60006020820190508181036000830152612b858161271c565b9050919050565b60006020820190508181036000830152612ba58161273f565b9050919050565b60006020820190508181036000830152612bc581612762565b9050919050565b60006020820190508181036000830152612be581612785565b9050919050565b60006020820190508181036000830152612c05816127a8565b9050919050565b60006020820190508181036000830152612c25816127cb565b9050919050565b60006020820190508181036000830152612c45816127ee565b9050919050565b60006020820190508181036000830152612c6581612811565b9050919050565b60006020820190508181036000830152612c8581612834565b9050919050565b60006020820190508181036000830152612ca581612857565b9050919050565b60006020820190508181036000830152612cc58161287a565b9050919050565b60006020820190508181036000830152612ce58161289d565b9050919050565b60006020820190508181036000830152612d05816128c0565b9050919050565b60006020820190508181036000830152612d25816128e3565b9050919050565b60006020820190508181036000830152612d4581612906565b9050919050565b60006020820190508181036000830152612d6581612929565b9050919050565b60006020820190508181036000830152612d858161294c565b9050919050565b60006020820190508181036000830152612da581612992565b9050919050565b60006020820190508181036000830152612dc5816129d8565b9050919050565b60006020820190508181036000830152612de5816129fb565b9050919050565b60006020820190508181036000830152612e0581612a1e565b9050919050565b6000602082019050612e216000830184612a41565b92915050565b6000604082019050612e3c6000830185612a41565b612e496020830184612a41565b9392505050565b6000602082019050612e656000830184612a50565b92915050565b600081519050919050565b600082825260208201905092915050565b600081905092915050565b6000612e9d82612fea565b9150612ea883612fea565b9250827fffffffffffffffffffffffffffffffffffffffffffffffffffffffffffffffff03821115612edd57612edc613090565b5b828201905092915050565b6000612ef382612fea565b9150612efe83612fea565b9250817fffffffffffffffffffffffffffffffffffffffffffffffffffffffffffffffff0483118215151615612f3757612f36613090565b5b828202905092915050565b6000612f4d82612fea565b9150612f5883612fea565b925082821015612f6b57612f6a613090565b5b828203905092915050565b6000612f8182612fca565b9050919050565b60008115159050919050565b6000819050919050565b60007fffffffff0000000000000000000000000000000000000000000000000000000082169050919050565b600073ffffffffffffffffffffffffffffffffffffffff82169050919050565b6000819050919050565b600060ff82169050919050565b60005b8381101561301f578082015181840152602081019050613004565b8381111561302e576000848401525b50505050565b600061303f82612fea565b9150600082141561305357613052613090565b5b600182039050919050565b6000600282049050600182168061307657607f821691505b6020821081141561308a576130896130bf565b5b50919050565b7f4e487b7100000000000000000000000000000000000000000000000000000000600052601160045260246000fd5b7f4e487b7100000000000000000000000000000000000000000000000000000000600052602260045260246000fd5b7f4e487b7100000000000000000000000000000000000000000000000000000000600052603160045260246000fd5b7f4e487b7100000000000000000000000000000000000000000000000000000000600052603260045260246000fd5b7f4e487b7100000000000000000000000000000000000000000000000000000000600052604160045260246000fd5b600080fd5b6000601f19601f8301169050919050565b7f4d757374206861766520636170206368616e67657220726f6c65000000000000600082015250565b7f456e756d657261626c655365743a20696e646578206f7574206f6620626f756e60008201527f6473000000000000000000000000000000000000000000000000000000000000602082015250565b7f537472696e67733a20686578206c656e67746820696e73756666696369656e74600082015250565b7f45524332303a207472616e7366657220746f20746865207a65726f206164647260008201527f6573730000000000000000000000000000000000000000000000000000000000602082015250565b7f45524332304361707065643a2063617020697320300000000000000000000000600082015250565b7f5061757361626c653a206e6f7420706175736564000000000000000000000000600082015250565b7f45524332303a206275726e20616d6f756e7420657863656564732062616c616e60008201527f6365000000000000000000000000000000000000000000000000000000000000602082015250565b7f45524332305072657365744d696e7465725061757365723a206d75737420686160008201527f76652070617573657220726f6c6520746f20756e706175736500000000000000602082015250565b7f45524332303a20617070726f766520746f20746865207a65726f20616464726560008201527f7373000000000000000000000000000000000000000000000000000000000000602082015250565b7f45524332303a207472616e7366657220616d6f756e742065786365656473206260008201527f616c616e63650000000000000000000000000000000000000000000000000000602082015250565b7f5061757361626c653a2070617573656400000000000000000000000000000000600082015250565b7f45524332303a207472616e7366657220616d6f756e742065786365656473206160008201527f6c6c6f77616e6365000000000000000000000000000000000000000000000000602082015250565b7f45524332305072657365744d696e7465725061757365723a206d75737420686160008201527f7665206d696e74657220726f6c6520746f206d696e7400000000000000000000602082015250565b7f45524332303a206275726e20616d6f756e74206578636565647320616c6c6f7760008201527f616e636500000000000000000000000000000000000000000000000000000000602082015250565b7f45524332303a206275726e2066726f6d20746865207a65726f2061646472657360008201527f7300000000000000000000000000000000000000000000000000000000000000602082015250565b7f45524332303a207472616e736665722066726f6d20746865207a65726f20616460008201527f6472657373000000000000000000000000000000000000000000000000000000602082015250565b7f546f74616c20737570706c792065786365656473207468652070726f706f736560008201527f6420636170000000000000000000000000000000000000000000000000000000602082015250565b7f45524332304361707065643a2063617020657863656564656400000000000000600082015250565b7f45524332303a20617070726f76652066726f6d20746865207a65726f2061646460008201527f7265737300000000000000000000000000000000000000000000000000000000602082015250565b7f45524332305072657365744d696e7465725061757365723a206d75737420686160008201527f76652070617573657220726f6c6520746f207061757365000000000000000000602082015250565b7f416363657373436f6e74726f6c3a206163636f756e7420000000000000000000600082015250565b7f45524332303a2064656372656173656420616c6c6f77616e63652062656c6f7760008201527f207a65726f000000000000000000000000000000000000000000000000000000602082015250565b7f206973206d697373696e6720726f6c6520000000000000000000000000000000600082015250565b7f416363657373436f6e74726f6c3a2063616e206f6e6c792072656e6f756e636560008201527f20726f6c657320666f722073656c660000000000000000000000000000000000602082015250565b7f45524332303a206d696e7420746f20746865207a65726f206164647265737300600082015250565b7f45524332305061757361626c653a20746f6b656e207472616e7366657220776860008201527f696c652070617573656400000000000000000000000000000000000000000000602082015250565b61384a81612f76565b811461385557600080fd5b50565b61386181612f94565b811461386c57600080fd5b50565b61387881612f9e565b811461388357600080fd5b50565b61388f81612fea565b811461389a57600080fd5b5056fea26469706673582212200b1d489b066fde2736707b36944b27e4755b0f13e3fcc85a0b919147701cc02a64736f6c63430008060033",
  "immutableReferences": {},
  "source": "// SPDX-License-Identifier: MIT\n\npragma solidity ^0.8.0;\n\nimport \"./ERC20PresetMinterPauserCapped.sol\";\n\n\ncontract MyToken is ERC20PresetMinterPauserCapped (\"MyToken\", \"MTK\", 10000){\n    \n}",
  "sourcePath": "/Users/noname/truffle/erc20/contracts/MyToken.sol",
  "compiler": {
    "name": "solc",
    "version": "0.8.6+commit.11564f7e.Emscripten.clang"
  },
  "schemaVersion": "3.4.1",
  "updatedAt": "2021-06-29T13:33:42.679Z",
  "networkType": "ethereum",
  "devdoc": {
    "kind": "dev",
    "methods": {
      "allowance(address,address)": {
        "details": "See {IERC20-allowance}."
      },
      "approve(address,uint256)": {
        "details": "See {IERC20-approve}. Requirements: - `spender` cannot be the zero address."
      },
      "balanceOf(address)": {
        "details": "See {IERC20-balanceOf}."
      },
      "burn(uint256)": {
        "details": "Destroys `amount` tokens from the caller. See {ERC20-_burn}."
      },
      "burnFrom(address,uint256)": {
        "details": "Destroys `amount` tokens from `account`, deducting from the caller's allowance. See {ERC20-_burn} and {ERC20-allowance}. Requirements: - the caller must have allowance for ``accounts``'s tokens of at least `amount`."
      },
      "cap()": {
        "details": "Returns the cap on the token's total supply."
      },
      "decimals()": {
        "details": "Returns the number of decimals used to get its user representation. For example, if `decimals` equals `2`, a balance of `505` tokens should be displayed to a user as `5,05` (`505 / 10 ** 2`). Tokens usually opt for a value of 18, imitating the relationship between Ether and Wei. This is the value {ERC20} uses, unless this function is overridden; NOTE: This information is only used for _display_ purposes: it in no way affects any of the arithmetic of the contract, including {IERC20-balanceOf} and {IERC20-transfer}."
      },
      "decreaseAllowance(address,uint256)": {
        "details": "Atomically decreases the allowance granted to `spender` by the caller. This is an alternative to {approve} that can be used as a mitigation for problems described in {IERC20-approve}. Emits an {Approval} event indicating the updated allowance. Requirements: - `spender` cannot be the zero address. - `spender` must have allowance for the caller of at least `subtractedValue`."
      },
      "getRoleAdmin(bytes32)": {
        "details": "Returns the admin role that controls `role`. See {grantRole} and {revokeRole}. To change a role's admin, use {_setRoleAdmin}."
      },
      "getRoleMember(bytes32,uint256)": {
        "details": "Returns one of the accounts that have `role`. `index` must be a value between 0 and {getRoleMemberCount}, non-inclusive. Role bearers are not sorted in any particular way, and their ordering may change at any point. WARNING: When using {getRoleMember} and {getRoleMemberCount}, make sure you perform all queries on the same block. See the following https://forum.openzeppelin.com/t/iterating-over-elements-on-enumerableset-in-openzeppelin-contracts/2296[forum post] for more information."
      },
      "getRoleMemberCount(bytes32)": {
        "details": "Returns the number of accounts that have `role`. Can be used together with {getRoleMember} to enumerate all bearers of a role."
      },
      "grantRole(bytes32,address)": {
        "details": "Overload {grantRole} to track enumerable memberships"
      },
      "hasRole(bytes32,address)": {
        "details": "Returns `true` if `account` has been granted `role`."
      },
      "increaseAllowance(address,uint256)": {
        "details": "Atomically increases the allowance granted to `spender` by the caller. This is an alternative to {approve} that can be used as a mitigation for problems described in {IERC20-approve}. Emits an {Approval} event indicating the updated allowance. Requirements: - `spender` cannot be the zero address."
      },
      "mint(address,uint256)": {
        "details": "Creates `amount` new tokens for `to`. See {ERC20-_mint}. Requirements: - the caller must have the `MINTER_ROLE`."
      },
      "name()": {
        "details": "Returns the name of the token."
      },
      "pause()": {
        "details": "Pauses all token transfers. See {ERC20Pausable} and {Pausable-_pause}. Requirements: - the caller must have the `PAUSER_ROLE`."
      },
      "paused()": {
        "details": "Returns true if the contract is paused, and false otherwise."
      },
      "renounceRole(bytes32,address)": {
        "details": "Overload {renounceRole} to track enumerable memberships"
      },
      "revokeRole(bytes32,address)": {
        "details": "Overload {revokeRole} to track enumerable memberships"
      },
      "setCap(uint256)": {
        "details": "Modified the current cap of the token's total supply MUST check the role to allow modification of cap  Emits a {CapChanged} event with previous and new `cap` values .  Requirements: - sender's `account` must have role `CAPCHG_ROLE` - Proposed `new_cap' value MUST be greater than the `ERC20.totalSupply()`."
      },
      "supportsInterface(bytes4)": {
        "details": "See {IERC165-supportsInterface}."
      },
      "symbol()": {
        "details": "Returns the symbol of the token, usually a shorter version of the name."
      },
      "totalSupply()": {
        "details": "See {IERC20-totalSupply}."
      },
      "transfer(address,uint256)": {
        "details": "See {IERC20-transfer}. Requirements: - `recipient` cannot be the zero address. - the caller must have a balance of at least `amount`."
      },
      "transferFrom(address,address,uint256)": {
        "details": "See {IERC20-transferFrom}. Emits an {Approval} event indicating the updated allowance. This is not required by the EIP. See the note at the beginning of {ERC20}. Requirements: - `sender` and `recipient` cannot be the zero address. - `sender` must have a balance of at least `amount`. - the caller must have allowance for ``sender``'s tokens of at least `amount`."
      },
      "unpause()": {
        "details": "Unpauses all token transfers. See {ERC20Pausable} and {Pausable-_unpause}. Requirements: - the caller must have the `PAUSER_ROLE`."
      }
    },
    "version": 1
  },
  "userdoc": {
    "kind": "user",
    "methods": {},
    "version": 1
  }
}